{
    "contractName": "NFTMarket",
    "abi": [
        {
            "inputs": [],
            "stateMutability": "nonpayable",
            "type": "constructor"
        },
        {
            "anonymous": false,
            "inputs": [
                {
                    "indexed": true,
                    "internalType": "uint256",
                    "name": "itemId",
                    "type": "uint256"
                },
                {
                    "indexed": true,
                    "internalType": "address",
                    "name": "nftContract",
                    "type": "address"
                },
                {
                    "indexed": true,
                    "internalType": "uint256",
                    "name": "tokenId",
                    "type": "uint256"
                },
                {
                    "indexed": false,
                    "internalType": "address",
                    "name": "seller",
                    "type": "address"
                },
                {
                    "indexed": false,
                    "internalType": "address",
                    "name": "owner",
                    "type": "address"
                },
                {
                    "indexed": false,
                    "internalType": "bool",
                    "name": "sold",
                    "type": "bool"
                },
                {
                    "indexed": false,
                    "internalType": "int256",
                    "name": "CoordCenter",
                    "type": "int256"
                },
                {
                    "indexed": false,
                    "internalType": "int256",
                    "name": "PolygonCoords",
                    "type": "int256"
                },
                {
                    "indexed": false,
                    "internalType": "uint256",
                    "name": "price",
                    "type": "uint256"
                }
            ],
            "name": "LandCreated",
            "type": "event"
        },
        {
            "inputs": [
                {
                    "internalType": "address",
                    "name": "nftContract",
                    "type": "address"
                },
                {
                    "internalType": "uint256",
                    "name": "tokenId",
                    "type": "uint256"
                },
                {
                    "internalType": "int256",
                    "name": "CoordCenter",
                    "type": "int256"
                },
                {
                    "internalType": "int256",
                    "name": "PolygonCoords",
                    "type": "int256"
                },
                {
                    "internalType": "uint256",
                    "name": "price",
                    "type": "uint256"
                }
            ],
            "name": "createMarketItem",
            "outputs": [],
            "stateMutability": "payable",
            "type": "function"
        },
        {
            "inputs": [
                {
                    "internalType": "address",
                    "name": "nftContract",
                    "type": "address"
                },
                {
                    "internalType": "uint256",
                    "name": "itemId",
                    "type": "uint256"
                }
            ],
            "name": "createMarketSale",
            "outputs": [],
            "stateMutability": "payable",
            "type": "function"
        },
        {
            "inputs": [],
            "name": "fetchItemsCreated",
            "outputs": [
                {
                    "components": [
                        {
                            "internalType": "uint256",
                            "name": "itemId",
                            "type": "uint256"
                        },
                        {
                            "internalType": "address",
                            "name": "nftContract",
                            "type": "address"
                        },
                        {
                            "internalType": "uint256",
                            "name": "tokenId",
                            "type": "uint256"
                        },
                        {
                            "internalType": "address payable",
                            "name": "seller",
                            "type": "address"
                        },
                        {
                            "internalType": "address payable",
                            "name": "owner",
                            "type": "address"
                        },
                        {
                            "internalType": "bool",
                            "name": "sold",
                            "type": "bool"
                        },
                        {
                            "internalType": "int256",
                            "name": "CoordCenter",
                            "type": "int256"
                        },
                        {
                            "internalType": "int256",
                            "name": "PolygonCoords",
                            "type": "int256"
                        },
                        {
                            "internalType": "uint256",
                            "name": "price",
                            "type": "uint256"
                        }
                    ],
                    "internalType": "struct NFTMarket.Land[]",
                    "name": "",
                    "type": "tuple[]"
                }
            ],
            "stateMutability": "view",
            "type": "function"
        },
        {
            "inputs": [],
            "name": "fetchMarketItems",
            "outputs": [
                {
                    "components": [
                        {
                            "internalType": "uint256",
                            "name": "itemId",
                            "type": "uint256"
                        },
                        {
                            "internalType": "address",
                            "name": "nftContract",
                            "type": "address"
                        },
                        {
                            "internalType": "uint256",
                            "name": "tokenId",
                            "type": "uint256"
                        },
                        {
                            "internalType": "address payable",
                            "name": "seller",
                            "type": "address"
                        },
                        {
                            "internalType": "address payable",
                            "name": "owner",
                            "type": "address"
                        },
                        {
                            "internalType": "bool",
                            "name": "sold",
                            "type": "bool"
                        },
                        {
                            "internalType": "int256",
                            "name": "CoordCenter",
                            "type": "int256"
                        },
                        {
                            "internalType": "int256",
                            "name": "PolygonCoords",
                            "type": "int256"
                        },
                        {
                            "internalType": "uint256",
                            "name": "price",
                            "type": "uint256"
                        }
                    ],
                    "internalType": "struct NFTMarket.Land[]",
                    "name": "",
                    "type": "tuple[]"
                }
            ],
            "stateMutability": "view",
            "type": "function"
        },
        {
            "inputs": [],
            "name": "fetchMyNFTs",
            "outputs": [
                {
                    "components": [
                        {
                            "internalType": "uint256",
                            "name": "itemId",
                            "type": "uint256"
                        },
                        {
                            "internalType": "address",
                            "name": "nftContract",
                            "type": "address"
                        },
                        {
                            "internalType": "uint256",
                            "name": "tokenId",
                            "type": "uint256"
                        },
                        {
                            "internalType": "address payable",
                            "name": "seller",
                            "type": "address"
                        },
                        {
                            "internalType": "address payable",
                            "name": "owner",
                            "type": "address"
                        },
                        {
                            "internalType": "bool",
                            "name": "sold",
                            "type": "bool"
                        },
                        {
                            "internalType": "int256",
                            "name": "CoordCenter",
                            "type": "int256"
                        },
                        {
                            "internalType": "int256",
                            "name": "PolygonCoords",
                            "type": "int256"
                        },
                        {
                            "internalType": "uint256",
                            "name": "price",
                            "type": "uint256"
                        }
                    ],
                    "internalType": "struct NFTMarket.Land[]",
                    "name": "",
                    "type": "tuple[]"
                }
            ],
            "stateMutability": "view",
            "type": "function"
        },
        {
            "inputs": [],
            "name": "getListingPrice",
            "outputs": [
                {
                    "internalType": "uint256",
                    "name": "",
                    "type": "uint256"
                }
            ],
            "stateMutability": "view",
            "type": "function"
        }
    ],
    "bytecode": "60806040526658d15e1762800060045534801561001b57600080fd5b506001600055600380546001600160a01b03191633179055610d91806100426000396000f3fe6080604052600436106100555760003560e01c80630f08efe01461005a57806312e8558514610085578063202e3740146100a35780638d6cf77c146100b8578063c23b139e146100cd578063f064c32e146100e0575b600080fd5b34801561006657600080fd5b5061006f6100f5565b60405161007c9190610b9d565b60405180910390f35b34801561009157600080fd5b5060045460405190815260200161007c565b3480156100af57600080fd5b5061006f61029a565b6100cb6100c6366004610c63565b61047d565b005b6100cb6100db366004610ca5565b610737565b3480156100ec57600080fd5b5061006f610951565b6060600061010260015490565b9050600061010f60025490565b60015461011c9190610ce5565b90506000808267ffffffffffffffff81111561013a5761013a610cfc565b60405190808252806020026020018201604052801561017357816020015b610160610b34565b8152602001906001900390816101585790505b50905060005b84811015610291576000600581610191846001610d12565b81526020810191909152604001600020600401546001600160a01b0316141561027f5760006101c1826001610d12565b6000818152600560208181526040928390208351610120810185528154815260018201546001600160a01b039081169382019390935260028201549481019490945260038101548216606085015260048101549182166080850152600160a01b90910460ff16151560a08401529081015460c0830152600681015460e0830152600781015461010083015285519293509185908790811061026457610264610d2a565b602090810291909101015261027a600186610d12565b945050505b8061028981610d40565b915050610179565b50949350505050565b606060006102a760015490565b905060008060005b8381101561030a5733600560006102c7846001610d12565b81526020810191909152604001600020600401546001600160a01b031614156102f8576102f5600184610d12565b92505b8061030281610d40565b9150506102af565b5060008267ffffffffffffffff81111561032657610326610cfc565b60405190808252806020026020018201604052801561035f57816020015b61034c610b34565b8152602001906001900390816103445790505b50905060005b8481101561029157336005600061037d846001610d12565b81526020810191909152604001600020600401546001600160a01b0316141561046b5760006103ad826001610d12565b6000818152600560208181526040928390208351610120810185528154815260018201546001600160a01b039081169382019390935260028201549481019490945260038101548216606085015260048101549182166080850152600160a01b90910460ff16151560a08401529081015460c0830152600681015460e0830152600781015461010083015285519293509185908790811061045057610450610d2a565b6020908102919091010152610466600186610d12565b945050505b8061047581610d40565b915050610365565b600260005414156104d55760405162461bcd60e51b815260206004820152601f60248201527f5265656e7472616e637947756172643a207265656e7472616e742063616c6c0060448201526064015b60405180910390fd5b60026000556104e8600180546001019055565b60006104f360015490565b9050604051806101200160405280828152602001876001600160a01b03168152602001868152602001336001600160a01b0316815260200160006001600160a01b0316815260200160001515815260200185815260200184815260200183815250600560008381526020019081526020016000206000820151816000015560208201518160010160006101000a8154816001600160a01b0302191690836001600160a01b031602179055506040820151816002015560608201518160030160006101000a8154816001600160a01b0302191690836001600160a01b0316021790555060808201518160040160006101000a8154816001600160a01b0302191690836001600160a01b0316021790555060a08201518160040160146101000a81548160ff02191690831515021790555060c0820151816005015560e082015181600601556101008201518160070155905050856001600160a01b03166323b872dd3330886040518463ffffffff1660e01b8152600401610693939291906001600160a01b039384168152919092166020820152604081019190915260600190565b600060405180830381600087803b1580156106ad57600080fd5b505af11580156106c1573d6000803e3d6000fd5b50506040805133815260006020820181905281830152606081018890526080810187905260a0810186905290518893506001600160a01b038a16925084917f31db17a770f9dbb966168642a540919ab3b8ed7aa85ba54ba87bf3afe3be2948919081900360c00190a45050600160005550505050565b6002600054141561078a5760405162461bcd60e51b815260206004820152601f60248201527f5265656e7472616e637947756172643a207265656e7472616e742063616c6c0060448201526064016104cc565b60026000818155828152600560205260409020600781015491015434821461081c576040805162461bcd60e51b81526020600482015260248101919091527f506c65617365207375626d6974207468652061736b696e67207072696365206960448201527f6e206f7264657220746f20636f6d706c6574652074686520707572636861736560648201526084016104cc565b6000838152600560205260408082206003015490516001600160a01b03909116913480156108fc02929091818181858888f19350505050158015610864573d6000803e3d6000fd5b506040516323b872dd60e01b8152306004820152336024820152604481018290526001600160a01b038516906323b872dd90606401600060405180830381600087803b1580156108b357600080fd5b505af11580156108c7573d6000803e3d6000fd5b5050506000848152600560205260409020600401805460ff60a01b1933166001600160a81b031990911617600160a01b17905550610909600280546001019055565b6003546004546040516001600160a01b039092169181156108fc0291906000818181858888f19350505050158015610945573d6000803e3d6000fd5b50506001600055505050565b6060600061095e60015490565b905060008060005b838110156109c157336005600061097e846001610d12565b81526020810191909152604001600020600301546001600160a01b031614156109af576109ac600184610d12565b92505b806109b981610d40565b915050610966565b5060008267ffffffffffffffff8111156109dd576109dd610cfc565b604051908082528060200260200182016040528015610a1657816020015b610a03610b34565b8152602001906001900390816109fb5790505b50905060005b84811015610291573360056000610a34846001610d12565b81526020810191909152604001600020600301546001600160a01b03161415610b22576000610a64826001610d12565b6000818152600560208181526040928390208351610120810185528154815260018201546001600160a01b039081169382019390935260028201549481019490945260038101548216606085015260048101549182166080850152600160a01b90910460ff16151560a08401529081015460c0830152600681015460e08301526007810154610100830152855192935091859087908110610b0757610b07610d2a565b6020908102919091010152610b1d600186610d12565b945050505b80610b2c81610d40565b915050610a1c565b6040518061012001604052806000815260200160006001600160a01b031681526020016000815260200160006001600160a01b0316815260200160006001600160a01b031681526020016000151581526020016000815260200160008152602001600081525090565b602080825282518282018190526000919060409081850190868401855b82811015610c3a57815180518552868101516001600160a01b039081168887015286820151878701526060808301518216908701526080808301519091169086015260a08082015115159086015260c0808201519086015260e0808201519086015261010090810151908501526101209093019290850190600101610bba565b5091979650505050505050565b80356001600160a01b0381168114610c5e57600080fd5b919050565b600080600080600060a08688031215610c7b57600080fd5b610c8486610c47565b97602087013597506040870135966060810135965060800135945092505050565b60008060408385031215610cb857600080fd5b610cc183610c47565b946020939093013593505050565b634e487b7160e01b600052601160045260246000fd5b600082821015610cf757610cf7610ccf565b500390565b634e487b7160e01b600052604160045260246000fd5b60008219821115610d2557610d25610ccf565b500190565b634e487b7160e01b600052603260045260246000fd5b6000600019821415610d5457610d54610ccf565b506001019056fea2646970667358221220bca37e1efee2c006e4dbae1ea942cc893dba7094af40c53e817243c7065955c164736f6c63430008090033",
    "sourcePath": "/home/toshiba/projects/Blockchain/HACKATHON/Dapp-TokenMap/tokenmap/contracts/NFTMarket.sol",
    "compiler": {
        "name": "solc",
        "version": "0.8.9+commit.e5eed63a"
    },
    "functionHashes": {
        "createMarketItem(address,uint256,int256,int256,uint256)": "8d6cf77c",
        "createMarketSale(address,uint256)": "c23b139e",
        "fetchItemsCreated()": "f064c32e",
        "fetchMarketItems()": "0f08efe0",
        "fetchMyNFTs()": "202e3740",
        "getListingPrice()": "12e85585"
    },
    "gasEstimates": {
        "creation": {
            "codeDepositCost": "694600",
            "executionCost": "69175",
            "totalCost": "763775"
        },
        "external": {
            "createMarketItem(address,uint256,int256,int256,uint256)": "infinite",
            "createMarketSale(address,uint256)": "infinite",
            "fetchItemsCreated()": "infinite",
            "fetchMarketItems()": "infinite",
            "fetchMyNFTs()": "infinite",
            "getListingPrice()": "2280"
        }
    }
}